:100000000C94C3010C940A020C940A020C940A0288
:100010000C940A020C940A020C940A020C940A0230
:100020000C940A020C940A020C941E1A0C94F01AF6
:100030000C942C150C940A020C940A020C940A02DB
:100040000C940A020C940A020C940A020C940A0200
:100050000C940A020C9479150C940A020C940A026E
:100060000C940A020C940A020C940A020C940A02E0
:100070000C940A020C940A020C940A020C940A02D0
:100080000C940A020C940A020C940A020C940A02C0
:100090000C940A020C940A020C940A020C940A02B0
:1000A0000C940A020C940A020C940A02290B290BE4
:1000B0005B0B5B0BA80BDC0CDC0CDC0CC60B5B0CD1
:1000C0006C0C6C0CCC0CDC0CDC0CD50C6D0D6D0DC3
:1000D0007F0D7F0D760D7F0D7F0D7F0D6D0D6D0DED
:1000E0007B0D7F0D7F0D7B0D5D1B841B7C1C841B9A
:1000F0007C1CD01BF31B7C1C4A1C591C29003A0099
:100100003B003C003D003E003F004000410000003D
:1001100042004300440045004600470048003500C7
:100120001E001F00200021002200230024002500C3
:10013000260027002D002E002A0049004A004B000F
:100140002B0014001A000800150017001C001800EE
:100150000C00120013002F00300000004C004D0076
:100160004E00390004001600070009000A000B00C9
:100170000D000E000F003300340031002800000095
:1001800000000000E10035001D001B000600190002
:100190000500110010003600370038000000E100B3
:1001A000000052000000E000E200E3000000000058
:1001B00000002C0000000000E700E600E400000062
:1001C000E700500051004F000000BE00BD000000DD
:1001D000000000000000000000000000BC00AE00B5
:1001E000BB00A800AA00A900A500000000000000B4
:1001F00000000000000000000000000000000000FF
:1002000000000000000000000000A6000000000048
:1002100000000000000000000000000000000000DE
:10022000000000000000000000000000A700000027
:1002300000000000000000000000000000000000BE
:1002400000000000000000000000000000000000AE
:10025000000000000000000000000000000000009E
:10026000000000000000000000000000000000008E
:10027000000000000000000000000000000000007E
:10028000000000000000000000000000000000006E
:10029000000000000403300000000A034300550082
:1002A0003800300000001A03430061007000730042
:1002B00055006E006C006F0063006B006500640009
:1002C00000000403090409023B00020100A0FA092E
:1002D0000400000103010100092111010001224075
:1002E000000705810308000A09040100010300005A
:1002F00000092111010001223200070582032000BC
:100300000A1201100100000008EDFE0000010001CA
:1003100002030105010980A101850319012AB70023
:10032000150126B700950175108100C0050C090163
:10033000A101850419012AA002150126A002950138
:1003400075108100C005010906A101050719E02902
:10035000E715002501950875018102950175088151
:10036000010507190029FF150026FF0095067508ED
:10037000810005081901290595057501910295016E
:1003800075039101C00011241FBECFEFDAE0DEBF7C
:10039000CDBF04B603FE27C080918B0290918C02E2
:1003A000A0918D02B0918E028730904BA740B04B48
:1003B000D1F410928B0210928C0210928D02109246
:1003C0008E0214BE84B7877F84BF0FB6F894A895B9
:1003D00080916000886180936000109260000FBE81
:1003E000E0E0F8E3099511E0A0E0B1E0E4EFF9E323
:1003F00002C005900D92A638B107D9F722E0A6E811
:10040000B1E001C01D92AB38B207E1F70E944D1771
:100410000C94F81C0C94000081E0089581E008958C
:100420000C940E0208950C9412021F93CF93DF9345
:1004300000D000D01F92CDB7DEB749835A836B83BB
:100440003091AC0189819A81311114C0662359F031
:10045000222349F00E94A612182F682F89819A81C1
:100460000E944F1203C00E947A12182F69817A816C
:10047000812F04C00E94A61269817A810F900F908B
:100480000F900F900F90DF91CF911F910C94C902A4
:10049000FC01262F408151816281738184810C94FB
:1004A0001502CF93DF93EC0160E00E944802BE0189
:1004B000DF91CF910C9413020E94C5150E94DE13A8
:1004C000811102C00E947E140C94E5040C94E10496
:1004D00008950C94680281E008950C946B02CF9308
:1004E000C82F0E9469028C2F0E946D02CF9108953F
:1004F00008950E945B0D0E9478022FEF84E39CE038
:10050000215080409040E1F700C000000C949F15FE
:100510000F931F93CF93DF93EC0161E00E94480299
:100520008C01BE010E941002882349F1BE01C8015E
:100530000E94C306882319F1BE01C8010E94040766
:100540008823E9F0BE01C8010E942F088823B9F072
:100550008A81882369F001158CE5180731F00E3D7A
:100560001C4531F40E947E140AC00E94790207C023
:10057000CE01DF91CF911F910F910C940C0280E07E
:10058000DF91CF911F910F91089580E090E0089541
:10059000089526E6829FC0011124FC0121E1729F8B
:1005A000E00DF11D1124E60FF11DEE0FFF1FE450C9
:1005B000FF4F859194910895880F991FFC01EC5687
:1005C000FD4F859194910895CF93DF930E94C902C6
:1005D0000E94F603EC018115904508F043C0C11557
:1005E00080E4D80708F0CBC0C03ED10528F5C03C58
:1005F000D10508F0B3C0C83AD10578F4C53AD105A1
:1006000008F0A4C0C130D10509F4ECC008F4E8C07A
:10061000C430D10508F0E6C0E3C0CF3BD10508F0F7
:10062000DFC0C85AD0E0CC0FDD1FC35FDE4F09909A
:10063000D881C02DD464D6C0C11590E2D90750F43A
:10064000C11521E0D20708F0CDC0C83ED10508F49D
:10065000C9C0C6C0C11580E3D80708F086C0CE0166
:100660009F707FC0C11595E5D90708F043C0C1153B
:1006700024E5D20708F09AC0C11582E5D80708F52D
:10068000C11591E5D90708F07DC0CE0174E09695BB
:1006900087957A95E1F783709C2F937021E030E085
:1006A00002C0220F331F9A95E2F73C68382BCF70B7
:1006B000C695C69580E2C89FE0011124C22BD32BBA
:1006C00091C09E01237033278C2F86958695C11586
:1006D000D34508F05CC0C1E0D0E002C0CC0FDD1F04
:1006E0002A95E2F720E2829FC0011124C82BD92B62
:1006F000DC6878C0C11529E5D207A0F4C11588E5EA
:10070000D80708F058C0C11596E5D90708F068C0A9
:100710008C2F0E948A048F71C82FD0E0DC2FCC2749
:10072000D06260C0C1152AE5D20708F449C0CE01E5
:1007300090568115904208F053C08D2F8F710E9402
:100740008A04DD27D0628F71D82B4CC0C55AD0E007
:10075000C55CDE4FC881D0E0D06444C0CE01805C6F
:1007600091090E94DC02EC013DC0CE019927D3FF24
:1007700003C0EC01D86C36C0EC01D06C33C0DF7024
:10078000D06A30C0DC2FCC27C16FD06A2BC0C1E04B
:10079000D0E002C0CC0FDD1F2A95E2F720E2829F55
:1007A000C0011124C82BD92BDA681CC0DC2FCC2740
:1007B000C46FD06A17C0DC2FCC27C06FD06A12C0BC
:1007C0008C2F8F700E948A0494E0D695C7959A95D5
:1007D000E1F7CF70D0E0DC2FCC27D069C82B02C066
:1007E000C0E0D0E0CE01DF91CF910895823891052D
:1007F00069F1B0F48133910509F46DC048F4893290
:10080000910509F463C08A32910509F469C008951D
:100810008533910509F455C089339105B9F00895E0
:10082000833E910569F138F4803E9105B1F0823E36
:10083000910509F10895863E9105A9F1873E91053C
:10084000B9F1843E910509F064C023C020917C0277
:1008500020FD4FC021FD4DC0089580917C0280FD98
:1008600044C080917D0280FF44C080917C0284FD61
:1008700042C083EE4DC080917C0282FF38C0F5CF2C
:1008800080917C0282FD33C080917D0280FD31C069
:10089000ECCF80917D0281FF32C080917C0284FD8B
:1008A0002AC087EE35C080917C0283FF26C0F5CF39
:1008B00080917C0283FD21C080917D0281FD1FC05B
:1008C000ECCF80917C0285FD1CC01DC080917C0214
:1008D00085FD19C016C080917C0286FD16C017C028
:1008E00080917C0286FD13C010C089E311C082EEA6
:1008F0000FC080EE0DC080E00BC086EE09C084EE14
:1009000007C089E205C085E303C08AE201C081E334
:1009100090E0089590917C0292FF0DC0282F2871DD
:10092000283019F4877F846006C0282F2471243072
:1009300011F48B7F886093FF0DC0282F2871283118
:1009400019F4877E846106C0282F2471243111F4A4
:100950008B7E886120917D0220FF0DC0382F387179
:10096000383019F4877F816006C0382F31713130FB
:1009700011F48E7F886021FF0DC0282F2871283147
:1009800019F4877E816106C0282F2171213111F46D
:100990008E7E886194FD877E089524E0829FC00149
:1009A0001124FC01E05AFD4F6081718182819381A5
:1009B0000895089580EA8A95F1F7089508950C94B2
:1009C000DE040C94DF040C94DE040C94E304CF9357
:1009D000DF93AFE4B1E045E551E061E070E08D9177
:1009E000E82FE295EF70F0E021A18F70EB0102C0DB
:1009F000CC0FDD1F8A95E2F7CE019C2F90959223B4
:100A000091A392A1892B82A34A175B0741F7AEE31A
:100A1000B1E04FE451E061E070E08D91E82FE295A4
:100A2000EF70F0E021A18F70EB0102C0CC0FDD1F51
:100A30008A95E2F7CE019C2F9095922391A392A1E3
:100A4000892B82A34A175B0741F7E8E4F2E0A0E6AE
:100A5000B2E080E692E011921192119211921D92F1
:100A60001D921D921D928E179F07A9F786E00E9486
:100A70001206DF91CF910C945C022F923F924F921D
:100A80005F926F927F928F929F92AF92BF92CF921E
:100A9000DF92EF92FF920F931F93CF93DF93CDB727
:100AA000DEB728970FB6F894DEBF0FBECDBF3FE488
:100AB000C32E31E0D32E08E412E0F12C1E830D8307
:100AC000D8014D905D906D907C90F801108211825C
:100AD00012821382D6018D916D01482F42954F707D
:100AE000842E912C98868F82D40191969C91919717
:100AF0008F7022242394312C01C0220C8A95EAF7AE
:100B0000892F822991968C93919792968C919297A6
:100B1000E22CE0948E2192968C930E94DA04EEE30C
:100B2000F1E080E090E0B1902B2D22952F7030E025
:100B3000D90190962C91D8014D915D916D917C9148
:100B400049835A836B837C8330E0BB2DBF7002C026
:100B500035952795BA95E2F720FD0DC041E050E0AC
:100B600060E070E0082E04C0440F551F661F771F19
:100B70000A94D2F703C040E050E0BA0189809A801D
:100B8000AB80BC80482959296A297B29D8014D931B
:100B90005D936D937C93139701968131910519F6BE
:100BA000EF81F88581A1E822E1A282A1282A22A270
:100BB0000C5F1F4F81E0AD81BE814D915D916D91C4
:100BC0007C91441555056605770509F480E0F82AFF
:100BD000E0E6F2E0E017F10709F070CF2F2D46E0D4
:100BE00060E672E088E492E00E9413060E946602CA
:100BF0008F2D28960FB6F894DEBF0FBECDBFDF91C4
:100C0000CF911F910F91FF90EF90DF90CF90BF9009
:100C1000AF909F908F907F906F905F904F903F909C
:100C20002F9008950895FF920F931F93CF93DF9312
:100C3000F82ED92F8B01C42F222349F081E0809315
:100C400088010E945E1590938701809386018091B0
:100C500088018823F1F080918601909187010E949C
:100C60006A150697B0F0EF2DFD2FD80180E090E0D7
:100C70004C2F50E08417950754F401911191219164
:100C800031910D931D932D933D930196F3CF1092C7
:100C90008801DF91CF911F910F91FF9008950F93DD
:100CA0001F93CF93DF93C62FD42F122FFC01828185
:100CB0008823C9F060938B010E945E1590938A018E
:100CC0008093890180E28C0F883008F057C0C7708C
:100CD00081E001C0880FCA95EAF7DF91CF911F919B
:100CE0000F910C94E90A80918B01681330C08091B8
:100CF000890190918A010E946A15883C910538F516
:100D000000E20D0FCD17B9F080E28C0F883040F46F
:100D1000C77081E001C0880FCA95EAF70E94F00A07
:100D2000083028F581E09D2F977001C0880F9A95B3
:100D3000EAF70E94E90A812F0E94D60A0830F0F4EF
:100D4000D77081E001C0880FDA95EAF70AC080E227
:100D50008C0F883098F4C77081E001C0880FCA9565
:100D6000EAF7DF91CF911F910F910C94F00A812F38
:100D7000DF91CF911F910F910C94D60ADF91CF9103
:100D80001F910F9108959C01CB01233F4CE534073F
:100D9000F9F078F4283DFCE53F07B9F0293D4CE532
:100DA000340711F1273D3C4531F526E241EE61EE75
:100DB0001EC0253FFCE53F0799F070F0263F3C45FB
:100DC000D1F427E245EE66EE12C027E245EE0EC0F2
:100DD00026E241EE60EE0BC027E245EE64EE07C06E
:100DE00026E241EE62EE03C028E241E065EE0E9499
:100DF0004F0680E00895FC018281882319F010924B
:100E00008B01089581E00895CF93DF93EC01FB01FE
:100E10008281882309F41FC1C230FCE5DF0708F492
:100E20001BC1C6319CE5D90738F09E012A5F3C45BD
:100E30002930310508F010C10E94F11390937D0212
:100E400080937C02C031ECE5DE0709F4C3C008F0F2
:100E500041C0C8308CE5D80709F49AC0F0F4C4301A
:100E6000ECE5DE0709F487C068F4C2308CE5D807EA
:100E700009F477C0C330DC4509F0E3C080917C02FF
:100E8000826076C0C630ECE5DE0709F46EC008F07B
:100E90007BC080917C0288606BC0CC308CE5D80729
:100EA00009F485C068F4CA30ECE5DE0709F474C0C3
:100EB00008F079C00E945B0D80917C02806858C068
:100EC000CE308CE5D80709F476C008F07FC0809159
:100ED0007C028BC0CB3FECE5DE0709F44FC018F570
:100EE000C3318CE5D80709F47DC078F4C131ECE555
:100EF000DE0709F473C0C231DC4509F0A2C00E94CC
:100F00005B0D80917C028F7733C0C5318CE5D807AB
:100F100009F472C008F486C0CA3FDC4509F091C0EC
:100F200080917D023EC0CF3FFCE5DF0709F45FC042
:100F300058F4CD3F9CE5D90709F444C008F43FC0FC
:100F400080917D0282602DC0C130FDE5DF0709F48C
:100F500075C008F45DC0C230DD4509F072C080E0A4
:100F60006EC080917C02816003C080917C028061B0
:100F700080937C0266C080917C0211C080917D02CA
:100F8000826080937D025DC080917C028062F0CFA0
:100F900080917C028064ECCF80917C0288608460C8
:100FA000E7CF8160EECF80917C028E7FE1CF809190
:100FB0007C028D7FDDCF80917C02877FD9CF8091AD
:100FC0007D0218C080917D028D7FDBCF80917C02F5
:100FD0008F7ECECF80917C028F7DCACF80917C02A4
:100FE0008F7BC6CF80917C02877F8B7FC1CF809122
:100FF0007D028D7F8E7FC5CF80917C0282FB222770
:1010000020F991E0922790FB82F990FB83F9B0CF11
:1010100080917D02982F909591708E7F892B90FB07
:1010200081F9AFCF0E945B0D80917C0287FB222764
:1010300020F991E0922790FB87F99ACF81E00E94F6
:10104000801480917C0290917D020E9402140E9483
:101050005B0D80E001C081E0DF91CF910895CF93D7
:10106000DF9386319C4541F5EB010E942713982FB1
:101070008A812091000130910101882379F09A7AC8
:1010800081E009F480E080938C01911102C069E253
:1010900001C065E3C9010E94C7140AC080918C0198
:1010A000811102C069E201C065E3C9010E94C9144F
:1010B0000E94751380E001C081E0DF91CF91089517
:1010C00090939201809391010895E0919101F091A4
:1010D0009201309721F00190F081E02D099480E099
:1010E0000895E0919101F0919201309721F00280F2
:1010F000F381E02D0994089520918F0130919001A2
:101100002817390771F09093900180938F01E09137
:101110009101F0919201309721F00680F781E02D46
:101120000994089520918D0130918E012817390777
:1011300071F090938E0180938D01E0919101F09177
:101140009201309721F00084F185E02D09940895F3
:1011500085B7806885BF85B7806885BF0895089585
:101160000C94AF080C94B0080C94AF080C94AF0822
:101170000E94A8080E94B4080C94B20881E0089567
:101180000E9455150E94E7040E94D9150C94B608D8
:101190002F923F924F925F926F927F928F929F9287
:1011A000AF92BF92CF92DF92EF92FF920F931F9375
:1011B000CF93DF93CDB7DEB72B970FB6F894DEBF92
:1011C0000FBECDBF0E943D050E94BE08811111C017
:1011D0008FEF89838A831B820E945E158160782F3E
:1011E0009D838C8349815A816B818D810E94A109E5
:1011F0006BC044E9242E41E0342E00E010E00B8760
:10120000802F0E94CD044B015C01F101419051906F
:10121000619071901F014626572668267926411451
:1012200051046104710431F40F5F1F4F0630110542
:1012300031F7CECF80913B0281FD0E94D90480E03E
:10124000C12CD12C7601C394B301A2014C215D21A4
:101250006E217F21452B462B472B71F18E83FB8519
:10126000FF838C209D20AE20BF2081E089288A2822
:101270008B2809F480E088870E945E158160782FB2
:101280009A8789874E815F8168858A850E94A10936
:10129000000F111F000F111FF801EC56FE4F808147
:1012A0009181A281B381C826D926EA26FB26C08275
:1012B000D182E282F38208C08F5FCC0CDD1CEE1C71
:1012C000FF1C813109F6B0CF0E946508909193010F
:1012D0008917F1F00E946508809393012B960FB651
:1012E000F894DEBF0FBECDBFDF91CF911F910F915C
:1012F000FF90EF90DF90CF90BF90AF909F908F9036
:101300007F906F905F904F903F902F900C946F0262
:101310002B960FB6F894DEBF0FBECDBFDF91CF91F5
:101320001F910F91FF90EF90DF90CF90BF90AF9003
:101330009F908F907F906F905F904F903F902F90F5
:101340000895CF93DF93CDB7DEB72B970FB6F89400
:10135000DEBF0FBECDBF4F83588769877A878B87E3
:10136000DE01119686E0FD0111928A95E9F785E08C
:10137000FE01379601900D928A95E1F749815A81D5
:101380006B817C818D819E810E9414102B960FB6FB
:10139000F894DEBF0FBECDBFDF91CF910895FC0161
:1013A000808191810E94E8120895CF93882309F4E7
:1013B0009CC0C82F8238C1F40E94650881FD95C089
:1013C00069E380910001909101010E94C7140E947D
:1013D00075132FEF81EE94E0215080409040E1F7AB
:1013E00000C0000069E319C0833801F50E94650858
:1013F00080FD7BC063E580910001909101010E9416
:10140000C7140E9475132FEF81EE94E021508040A5
:101410009040E1F700C0000063E5809100019091E9
:1014200001010E94C914CF910C9475138438C1F442
:101430000E94650882FD59C067E480910001909187
:1014400001010E94C7140E9475132FEF81EE94E0F2
:10145000215080409040E1F700C0000067E4DDCFFC
:101460008CEF8C0F813AD0F46C2F80910001909119
:1014700001010E949114882349F06C2F8091000192
:10148000909101010E94C9140E9475136C2F8091E4
:101490000001909101010E94C714C5CF80E28C0F1A
:1014A000883048F4C77081E001C0880FCA95EAF718
:1014B0000E942A13B8CFEBE5EC0FE33040F4F0E0E4
:1014C000ED57FE4F808190E0CF910C947C08C85A74
:1014D000C73158F4EC2FF0E0EE0FFF1FEB5AFE4F30
:1014E00080819181CF910C949208CF9108958823A7
:1014F00009F45BC0682F823879F40E94650881FF87
:1015000054C069E380910001909101010E94C714C9
:101510000E94751369E310C08338B1F40E94650816
:1015200080FF43C063E580910001909101010E941A
:10153000C7140E94751363E5809100019091010129
:101540000E94C9140C947513843879F40E946508BC
:1015500082FF2BC067E480910001909101010E94FD
:10156000C7140E94751367E4E7CF8CEF860F813AAA
:1015700018F380E2860F883048F4677081E001C07C
:10158000880F6A95EAF70E943013DCCF8BE5860F4F
:10159000833020F480E090E00C947C08685A673136
:1015A00020F480E090E00C9492080895CF93C82F27
:1015B0000E94D509C93349F42FEF87EE93E02150FB
:1015C00080409040E1F700C000008C2FCF910C9438
:1015D000770A882321F00E942A130C94751308952A
:1015E000882321F00E9430130C9475130895CF9234
:1015F000DF92EF92FF920F931F93CF93DF937C01C3
:10160000062FC72FFC01158112951F70D281D111B1
:101610000E9447130E942013882379F0DD2369F08C
:1016200080E2800F883048F082E00E94BF130E9461
:10163000201391E0D82ED92601C0D12CCC2EC294F3
:101640008FE0C8228C2D90E0FC01EA5AFF4F0C94E9
:10165000B01C8C2F807FCF70882311F0C295C07F83
:10166000DD2399F0CC2309F482C180E2800F883019
:1016700010F0011104C08C2F0E942A1303C08C2F7C
:101680000E943A130E94751372C1802F0E94770A3C
:10169000CC2309F491C180E2800F883010F0011151
:1016A00004C08C2F0E94301303C08C2F0E94401363
:1016B0000E94751381C18C2F807FCF70803211F012
:1016C000C295C07F002319F00130C9F022C0DD238C
:1016D00071F0112341F0113031F40E945A138C2B18
:1016E0000E94621369C10E945A138C2B1DC01123E2
:1016F00019F0113009F460C10E946B1325C0DD237D
:1017000021F0163008F058C10EC0153008F054C151
:101710001BC0DD2361F0112331F0F701858180FFCB
:1017200026C18F7085838C2F0E94E90A45C1112341
:1017300059F0093309F02CC1FFEF27EE83E0F15097
:1017400020408040E1F722C18C2F0E94F00A34C172
:101750008C2F86958695837019F0813061F02CC1AD
:10176000DD2321F0802F9C2F937002C080E090E059
:101770000E947C0829C1DD2321F0802F9C2F9370CB
:1017800002C080E090E00E9492081EC18C2F8370FE
:1017900009F045C0D11114C1402F429546954770BC
:1017A000440F440F602F6F70862F90E0A0E0B0E0F0
:1017B000042E04C0880F991FAA1FBB1F0A94D2F7DA
:1017C00004FF10C00FE010E020E030E004C0000F84
:1017D000111F221F331F4A95D2F7009510952095AF
:1017E000309503C000E010E09801C695C695C3701F
:1017F000BC01CD01602B712B822B932BC23049F0A1
:1018000058F4C13019F00E946511DAC00E945311DA
:10181000D7C00E947711D4C00E945111D1C0DD23DE
:1018200019F08C2F817001C08695882309F4C8C0F7
:10183000402F429546954770440F440F602F6F70BC
:10184000862F90E0A0E0B0E0042E04C0880F991F1E
:10185000AA1FBB1F0A94D2F704FF10C00FE010E0CC
:1018600020E030E004C0000F111F221F331F4A95F3
:10187000D2F7009510952095309503C000E010E058
:101880009801C695C695C370BC01CD01602B712B24
:10189000822B932BC23049F058F4C13019F00E94CA
:1018A0002A128EC00E9418128BC00E943C1288C05F
:1018B0000E948B1185C0CF70DD2339F08C2F0E94E0
:1018C000B111802F0E94E90A7BC0802F0E94F00A8C
:1018D0008C2F0E94D21174C0023F01F128F4003F06
:1018E00041F0013FA1F03FC0033FF9F0043F39F15F
:1018F0003AC0DD2341F0153008F05EC08C2F8F71A7
:101900000E94F71159C0163008F056C0F7CFDD23FA
:1019100039F08C2F8F710E94B1114EC0DD23C9F3B5
:101920008C2F8F710E94D21147C0DD2329F08C2F9C
:101930008F710E949C1140C00E9497113DC0DD2311
:1019400049F0CF718C2F0E94B11163E08C2F0E945F
:10195000AA1332C081E00E94BF13123068F182E006
:101960000E94BF1329C0DD2331F0112391F2802F93
:101970000E94D50921C0112399F2093349F49FEF40
:10198000E7EEF3E09150E040F040E1F700C00000E6
:10199000802F0E94770A10C04C2F4F70602FC70114
:1019A0000E94C5020E94C2100FC04C2F4F70602FC2
:1019B000C7010E94C80208C088EF8C0D843020F453
:1019C0000E9465080E946F02DD20C9F00E941C136E
:1019D00080FD15C0F70112820E9416130E94B111FA
:1019E000C7010E94200D0E941613DF91CF911F9115
:1019F0000F91FF90EF90DF90CF900C94D211DF9178
:101A0000CF911F910F91FF90EF90DF90CF900895AD
:101A10000F931F93CF93DF93EC01688179818A81C3
:101A20000E94F3128C010E944E120E943F11B801D5
:101A3000CE010E94F70ADF91CF911F910F91089577
:101A4000CF93DF93FC019081818123813481232B0B
:101A500031F08F3F31F481E09F3F19F403C081E002
:101A600001C080E080FD0EC0EF01CF010E9488021E
:101A7000882341F0CE010E94080DCE01DF91CF9165
:101A80000C945102DF91CF9108950E9447130E9458
:101A900057130E94751380E090E00E947C0880E05C
:101AA00090E00C94920880910001909101010E94B5
:101AB000CB140C94450D0E9437130C94530DE92F51
:101AC000E295EF704E2F50E0FA013297EE30F105BB
:101AD000B0F4EA59FF4F0C94B01C803F91F018F419
:101AE000883E68F40EC0843F51F40BC0883E48F035
:101AF000813F29F406C093FB882780F9089580E090
:101B0000089581E008950E94E8120E945F0D0895F3
:101B1000CF93DF9300D000D01F92CDB7DEB70F90E8
:101B20000F900F900F900F90DF91CF910895CF936A
:101B3000DF9300D000D000D0CDB7DEB726960FB629
:101B4000F894DEBF0FBECDBFDF91CF9108951F93F4
:101B5000CF93DF93C091AD0116E08091AE01C8171D
:101B600099F0D0E01C9FF0011D9FF00D1124E1556C
:101B7000FE4F4081518162817381848195810E94F1
:101B8000970D2196C770E9CFDF91CF911F910895EE
:101B90004091DF015091E0016091E1017091E2011B
:101BA0008091E3019091E4010C94970D0F931F93A2
:101BB000CF93DF938091E40182958F7009F05DC02F
:101BC0008091E101882309F458C08091AD01109102
:101BD000AE016091DF017091E001C091E201D0910E
:101BE000E30191E06F3F09F090E0292F06E08117B3
:101BF00009F443C0209721F07F3F21F030E003C07B
:101C000031E001C0322F90E030FD34C0089FF00178
:101C1000099FF00D1124DF01A155BE4F11963C9193
:101C20001197371327C03C91361324C012963C916C
:101C3000129731111FC013964D915C9114974C1B54
:101C40005D0B483C5105B0F48091E4018F708061D8
:101C50008093E401EC54FE4F80818F70806180831B
:101C60008FED91E00E94200DDF91CF911F910F9198
:101C70000C94A70D01968770BACFDF91CF911F9179
:101C80000F9108959F92AF92BF92CF92DF92EF9201
:101C9000FF920F931F93CF93DF93CDB7DEB761977A
:101CA0000FB6F894DEBF0FBECDBF8C0185E0F80102
:101CB000DE011D9601900D928A95E1F7F8014081B1
:101CC0005181E2809091DF016091E0012091E20179
:101CD0003091E3012115310531F06F3F31F481E09E
:101CE0009F3F19F403C081E001C080E0F82FF1703C
:101CF0009F2E80FD46C1F801A380B4808FEDC82ED1
:101D000081E0D82EF090E101F501E21BF30BFF20FA
:101D100009F4DFC08091E401E83CF10508F09BC0C4
:101D2000282F207F09F052C0561313C0491311C049
:101D3000FE2CE1100EC08F7080618093E4010E9440
:101D4000C80DC6010E94200D8091E401F801858331
:101D500058C1AB2831F05F3F31F481E04F3F19F4B7
:101D600003C081E001C080E080FD03C081E08E25DA
:101D700002C080E090E0F82FF170FF2E80FF1CC0C1
:101D80008091AD012091AE0136E0821709F417C1B0
:101D900090E0389FF001399FF00D1124E155FE4F7E
:101DA0006181561306C06081461303C06281E6124A
:101DB00003C001968770E9CFFE2CEE2009F421C103
:101DC0008091E40181608093E4015AC0561306C0FB
:101DD000491304C0E11002C0F8019FC04D875E871F
:101DE0008D859E850E94830D882379F1EE2069F10F
:101DF0002091E401822F82958F7090E0029774F019
:101E00008091DF019091E00198878F831986BB86CE
:101E1000AA862C87CE0107960E94200D86E0F80145
:101E2000AFEDB1E001900D928A95E1F70E94D60DD9
:101E30000E94C80D0DC0561729F14D875E878D850C
:101E40009E850E94830D81112CC0C8010E94200D27
:101E5000FF24F394D6C0282F207F69F77A2DB98A02
:101E6000A88A6E2D89890E94880D8FED91E00E94CD
:101E7000200D86E0F60111928A95E9F70E94C80DBF
:101E8000F12CBFC04913D9CFE110D7CFF80185831A
:101E9000C8010E94200D86E0F60111928A95E9F7AB
:101EA000B0C0EE2091F22091E401822F82958F70D4
:101EB00090E002970CF4B2CF8091DF019091E001A5
:101EC0009A8389831B82BD82AC822E83CE010196C8
:101ED000A3CFE83CF10508F047C0FE2CEE2009F442
:101EE000B4CF561330C049132EC02091E40120FD19
:101EF00021C0822F82958F70482F50E041155105E7
:101F0000C9F0F80125834F30510541F08F5F982FBC
:101F10009295907F822F8F70892B8583C8010E94B4
:101F2000200D86E0F801AFEDB1E001900D928A95A9
:101F3000E1F742C086E0F801AFEDB1E001900D920B
:101F40008A95E1F75EC04D875E878D859E850E94EC
:101F5000830D811163CF8091E40181608093E4015E
:101F6000C8010E94200D4DC07A2DB98AA88A6E2D15
:101F700089890E94880D86E0F60111928A95E9F719
:101F80001BC0EE2009F461CF4D875E878D859E854D
:101F90000E94830DF82E882309F457CF86E0F801BC
:101FA000AFEDB1E001900D928A95E1F78FED91E0F0
:101FB0000E94CF090E94D60D0E94C80D22C04D87F5
:101FC0005E878D859E850E94E812292F22952F70AD
:101FD000223028F49F7039F0811105C00BC02430E5
:101FE00028F49F7049F4805E883020F0C8010E9478
:101FF000200D9F2CF92C05C0F8019581907F99F751
:10200000F9CF8F2D61960FB6F894DEBF0FBECDBF0E
:10201000DF91CF911F910F91FF90EF90DF90CF90C4
:10202000BF90AF909F9008951F93CF93DF93CDB74C
:10203000DEB72C970FB6F894DEBF0FBECDBF4F832F
:10204000588769877A878B879C87CE0107960E947D
:10205000420E8823D1F09F8188852A853B85232BDA
:1020600031F08F3F31F481E09F3F19F403C081E0EC
:1020700001C080E080FD47C04F81588569857A8521
:102080008B859C850E94970D3EC086E0FE013796A9
:10209000DE01119601900D928A95E1F7FF81E885A6
:1020A0006A857B856115710531F0EF3F31F481E080
:1020B000FF3F19F403C081E001C080E080FD23C030
:1020C0002091AE0130E0C9010196877099274091B7
:1020D000AD0150E084179507F1F1F983EA837D8320
:1020E0006C8396E0929FD001939FB00D1124A1556F
:1020F000BE4FFE01319601900D929A95E1F78093C3
:10210000AE010E94A70D16E08091AD019091AE0145
:10211000891771F1189FC001112481559E4F0E94AB
:10212000420E882329F1E091AD011E9FF001112498
:10213000E155FE4F40815181628173818481958197
:102140000E94970D8091AD0190E0019687709927CC
:102150008093AD01D9CF0E945B0D1092AE01109219
:10216000AD01EFEDF1E086E0DF011D928A95E9F720
:102170002C960FB6F894DEBF0FBECDBFDF91CF9186
:102180001F910895EF92FF920F931F93CF93DF93C8
:102190008C01892B09F46CC0F12CEE24E394E80146
:1021A0002196F8018491843740F4843008F051C0BE
:1021B000813081F0823019F15BC0853709F444C069
:1021C000A8F19CE7980F903708F052C08F770E94D3
:1021D000770A41C00E5F1F4FFE01849190E2980F75
:1021E000983050F48770FE2D01C0FF0F8A95EAF7F2
:1021F0008F2F0E944A1314C00E94D5092DC00E5F74
:102200001F4FFE01849190E2980F983060F4877020
:10221000FE2D01C0FF0F8A95EAF78F2F0E94501301
:102220000E94751319C00E94770A16C00E5F1F4FD7
:10223000FE01C491CC2381F08FE99FE00197F1F773
:1022400000C00000C150F6CF0E5F1F4FFE01F4909A
:1022500003C00E94D5098E018F2D882309F49FCFDA
:10226000EFE9FFE03197F1F700C000008150F5CFB2
:10227000DF91CF911F910F91FF90EF9008950895F6
:1022800008950C9440110C9441110E9443116093E5
:102290002A0270932B0280932C0290932D020C94AF
:1022A000450D0C9445110F931F9300912A02109134
:1022B0002B0220912C0230912D02602B712B822B4E
:1022C000932B1F910F910C9445110F931F93009125
:1022D0002A0210912B0220912C0230912D026023B2
:1022E0007123822393231F910F910C9445110F9317
:1022F0001F9300912A0210912B0220912C02309101
:102300002D0260277127822793271F910F910C942C
:1023100045110C9440110E9489116093260270931C
:10232000270280932802909329020C94450D60E0C7
:1023300070E0CB010C948B110F931F9341E050E0A0
:1023400060E070E08A019B0104C0000F111F221F92
:10235000331F8A95D2F7C901B8011F910F910C94D0
:102360008B110F931F9341E050E060E070E004C0D8
:10237000440F551F661F771F8A95D2F7809126025A
:1023800090912702A0912802B09129028A019B0115
:10239000082B192B2A2B3B2BC901B8011F910F9138
:1023A0000C948B110F931F9341E050E060E070E0BC
:1023B00004C0440F551F661F771F8A95D2F74095BA
:1023C0005095609570958091260290912702A0917A
:1023D0002802B09129028A019B01082319232A238C
:1023E0003B23C901B8011F910F910C948B110F93DE
:1023F0001F9341E050E060E070E004C0440F551FBF
:10240000661F771F8A95D2F7809126029091270246
:10241000A0912802B09129028A019B01082719275F
:102420002A273B27C901B8011F910F910C948B11EA
:102430000F931F93009126021091270220912802EA
:1024400030912902602B712B822B932B1F910F91BE
:102450000C948B110F931F93009126021091270269
:102460002091280230912902602371238223932333
:102470001F910F910C948B110F931F9300912602C3
:10248000109127022091280230912902602771279C
:10249000822793271F910F910C948B11089521E1AE
:1024A000929F800D1124E82FE695E695E6958770BA
:1024B00051E001C0550F8A95EAF785E0E89FF001E9
:1024C0001124EB51FE4F20E030E070E04081CB0161
:1024D000022E02C0969587950A94E2F78170819545
:1024E00084278523842781932F5F3F4F2530310533
:1024F00069F7089521E1929F800D1124682F669558
:1025000066956695982F977085E0689FB0011124B5
:1025100040E050E080E0FB01E40FF51FEB51FE4F7F
:10252000208130E0092E02C0369527950A94E2F703
:1025300021703327042E01C0220F0A94EAF7822B60
:102540004F5F5F4F4530510531F70895BF92CF92ED
:10255000DF92EF92FF920F931F93CF93DF938C0143
:10256000C0902602D0902702E0902802F090290225
:1025700080912A0290912B02A0912C02B0912D0201
:10258000C82AD92AEA2AFB2ACFE1D0E0D701C6011E
:102590000C2E04C0B695A795979587950A94D2F707
:1025A00080FD04C0219790F7B12C07C0BC2EB80164
:1025B0008C2F0E94E4020197A9F38B2DDF91CF911C
:1025C0001F910F91FF90EF90DF90CF90BF900895F3
:1025D000CF93DF93EC010E94A612BE010E94E40299
:1025E000DF91CF9108951F93CF93DF93EB019091EB
:1025F000AC01992321F0CB010E94E81213C088237B
:1026000049F0CB010E94A612182F682FCE010E941C
:102610004F1204C0CB010E947A12182FBE01812FE5
:102620000E94E402DF91CF911F91089580912E02C4
:10263000859585958595089580912E0287700895DA
:1026400090912E02977081E009F480E008958091C6
:102650003A02089590913A02892B80933A020895A4
:10266000809590913A02892380933A0208951092BE
:102670003A02089590913902892B80933902089586
:1026800080959091390289238093390208951092A0
:102690003902089590913802892B80933802089569
:1026A0008095909138028923809338020895109282
:1026B0003802089580912F02089508950C945D13B7
:1026C0000C945E1390912F02981721F080932F02A3
:1026D0000C946013089580912F02882329F01092A2
:1026E0002F0280E00C9460130895E0910001F091B6
:1026F000010180913A028083E0910001F091010193
:10270000908180913902892B8083E0910001F091C2
:102710000101908180913802892B808380912F0262
:10272000882381F0E0910001F09101019081892BD3
:10273000808380910001909101010E948514811194
:102740000E946B1380910001909101010C9471081B
:102750000C945D1398E0899F90011124262B2093FF
:102760002E020E94B11180912E0285958595859546
:102770000C94A81310922E0280E00C94A8132091C0
:102780002E028095822380932E02982F977079F4E1
:1027900030E0482F082E000C550B2417350739F070
:1027A0008595859585950E94D2110C94BA1308954C
:1027B0006FEF7FEF80E090E00C94E21C80E090E00F
:1027C0000E94BE1C21E08C3E9E4F09F020E0822F2B
:1027D000089582E090E00C94B61C83E090E00C94A5
:1027E000B61CCF9384E090E00E94B61CC82F81E213
:1027F00090E00E94B61C2C2F30E0A901582BCA0192
:10280000CF910895CF93C92F682F84E090E00E9464
:10281000C41C6C2F81E290E0CF910C94C41CAB01DE
:10282000BC018FE090E00C94D61CAB01BC0183E1AD
:1028300090E00C94D61C60E070E0CB010C94151471
:1028400060E070E0CB010E940F140C941B146CEE3E
:102850007EEF80E090E00E94E21C60E082E090E089
:102860000E94C41C60E083E090E00E94C41C1092AF
:102870002A0210922B0210922C0210922D0260E07C
:1028800084E090E00E94C41C60E081E290E00E943D
:10289000C41C60E085E090E00E94C41C60E086E01B
:1028A00090E00E94C41C6FEF87E090E00E94C41C7F
:1028B00040E050E0BA0188E090E00E94D61C60E061
:1028C0008DE090E00E94C41C40E050E0BA0188E135
:1028D00090E00E94D61C60E087E190E00E94C41C5A
:1028E00040E050E0BA018CE190E00E94D61C60E02C
:1028F00080E290E00E94C41C0C9420140C942714D5
:10290000682F8EE090E00C94C41CFC01329697E096
:1029100080E0915029F021912223D9F38F5FF9CFE4
:102920000895662349F0FC013296089621916217BA
:1029300029F0E817F907D1F780E0089581E00895BC
:102940009C01FC0132969FEF80E04191461789F08F
:102950009F3F19F4411101C0982F8F5F8630A9F76E
:102960009F3F39F0F901E90FF11D97FDFA95628358
:10297000089508959C012A5F3F4FFC014281461350
:1029800001C01282019682179307B9F708950C943B
:10299000A0140C94BA14029626E0FC0111922A9518
:1029A000E9F7089508950C94D2140C94D214CF939F
:1029B0000E94D5140E943D050E94D314C0E08C2FC4
:1029C0000E94CD04672B682B692B29F4CF5FC6309A
:1029D000B1F780E001C081E0CF9108950C94D2144A
:1029E0000C94EE140E94F01480918202843049F11C
:1029F00010923C0220E488E190E00FB6F894A8958C
:102A0000809360000FBE2093600080E00E946F0200
:102A10000E94F01483B7817F846083BF83B7816095
:102A200083BF7894889583B78E7F83BF0FB6F89461
:102A3000A89580916000886180936000109260008A
:102A40000FBE08950C94D2140E945B0D0E9465087D
:102A50000E946F020C9422151F920F920FB60F92D4
:102A600011248F939F93AF93BF9380913C02811168
:102A700013C08091780290917902A0917A02B0916E
:102A80007B024196A11DB11D80937802909379023B
:102A9000A0937A02B0937B02BF91AF919F918F91E7
:102AA0000F900FBE0F901F90189582E084BD93E0A9
:102AB00095BD9AEF97BD80936E0008952FB7F89457
:102AC0008091780290917902A0917A02B0917B0274
:102AD0002FBF08959C014FB7F89480917802909190
:102AE0007902A0917A02B0917B024FBF821B930BB7
:102AF000089578941F920F920FB60F9211248F931E
:102B00009F93AF93BF938091780290917902A091A7
:102B10007A02B0917B020196A11DB11D80937802CB
:102B200090937902A0937A02B0937B02BF91AF9108
:102B30009F918F910F900FBE0F901F90189581E07D
:102B40008093E00080E28093D8001092C9008FE16A
:102B50009EE40197F1F700C0000087E090EBDC01F4
:102B600080938B0290938C02A0938D02B0938E027F
:102B70009CE088E10FB6F894A895809360000FBEA2
:102B800090936000FFCF0C94D8130E943D058FE313
:102B90009CE90197F1F700C000000E943D0580E02C
:102BA0000E94CD0460FF04C00E94C3150C949F15C1
:102BB00008950E94DE13811102C00E947E140E94BB
:102BC000E91380933B020E94F11390937D0280935E
:102BD0007C020E94ED13682F70E080E090E00C947E
:102BE00051118091450208950895CF93DF9300D04D
:102BF0001F92CDB7DEB790918202943019F5898388
:102C00007B836A8382E08093E9008FEF9091E800F4
:102C1000815095FD06C095ED9A95F1F70000811160
:102C2000F5CF8091E80085FF0DC040E050E063E003
:102C300070E0CE0101960E9412188091E8008E7714
:102C40008093E8000F900F900F90DF91CF9108953F
:102C5000CF93DF93EC010E94F517823011F084309E
:102C600031F4BE0184E0DF91CF910C94F515DF9132
:102C7000CF910895BC0183E00C94F515CF93DF93B9
:102C8000EC010E94F517823011F0843039F581E0B3
:102C90008093E9008FEF9091E800815095FD06C088
:102CA00095ED9A95F1F700008111F5CF8091E8003C
:102CB00085FF14C040E050E068E070E0CE010E9463
:102CC00012188091E8008E778093E80088E0FE017A
:102CD000ADE3B2E001900D928A95E1F7DF91CF91DB
:102CE000089580918102811109C00E94A3190E9458
:102CF000001A8091E20084608093E20008951092AF
:102D000081020895089508950C94241542E061EC21
:102D100081E00E941C1942E261EC82E00C941C19D3
:102D200080918402833009F460C030F4813071F006
:102D3000823009F499C008958A3009F485C08B3037
:102D400009F46BC0893009F0A7C020C080918302CC
:102D5000813A09F0A1C08091E800877F8093E80064
:102D60008091870290918802892B21F468E08DE39D
:102D700092E003C060E080E090E070E00E945D18A7
:102D80008091E8008B778093E8000895809183021A
:102D9000813209F081C08091870290918802029768
:102DA00008F07AC08091E800877F8093E8008091E6
:102DB000E80082FD05C0809182028111F8CF6CC0CD
:102DC0002091F3008091F20090E0922B029729F479
:102DD0008091F1008B7F813021F48091F10080930C
:102DE00045028091E8008B7753C080918302813A3D
:102DF00009F052C08091870290918802892B09F0D6
:102E00004BC08091E800877F8093E8008091E800C4
:102E100080FFFCCF80910C0136C08091830281320B
:102E2000D9F58091870290918802892BA9F580912C
:102E3000E800877F8093E8000E9451198091850205
:102E400080930C010C945B0D80918302813221F5FB
:102E50008091E800877F8093E8000E94511980915B
:102E6000860280934602089580918302813AA1F4FC
:102E70008091E800877F8093E8008091E80080FFE0
:102E8000FCCF809146028093F1008091E8008E771C
:102E90008093E8000C945119089584B7877F84BF0C
:102EA0000FB6F894A89580916000886180936000C7
:102EB000109260000FBE90E080E80FB6F894809307
:102EC0006100909361000FBE0E94B8080E94A31990
:102ED0000E94001A8091E20084608093E20078945E
:102EE0000E94951C0E94C00882E091E00E94600848
:102EF00080918202853069F40E94F21480918002F0
:102F00008823B1F30E94D714882391F30E94FC1701
:102F1000EFCF0E94C808ECCF0C948E17292F3327CF
:102F200023303105C9F060F42130310581F02230C1
:102F3000310509F04AC08BE390E026EC32E049C04D
:102F40002132310511F12232310579F13EC082E1A1
:102F500090E021E033E03DC099278130910561F098
:102F600040F08230910559F0039779F5E4E9F2E0F9
:102F700008C0E2ECF2E005C0E6EAF2E002C0EAE9ED
:102F8000F2E0849190E09F0124C06115710541F049
:102F900061307105D1F489E090E021EF32E019C091
:102FA00089E090E028ED32E014C06115710541F030
:102FB0006130710551F482E390E023E133E009C010
:102FC00080E490E025E433E004C080E090E020E07D
:102FD00030E0FA01318320830895809182028430A9
:102FE00011F081E0089582E00895809147028111F7
:102FF00002C00C94ED17089580E189BD82E189BD7E
:1030000009B400FEFDCF8091D8008F7D8093D80059
:103010008091E00082608093E0008091E00081FD7B
:10302000FCCF0895CF92DF92EF92FF920F931F9300
:10303000CF93DF93EC018B017A010E94701981110B
:1030400033C0E114F10439F0F70180819181081B4C
:10305000190BC80FD91FC12CD12C0115110519F15D
:103060008091E80085FD16C08091E8008E778093FE
:10307000E800E114F10449F0F70180819181C80E64
:10308000D91ED182C08285E00FC00E9470198823AA
:1030900021F30AC089918093F10001501109FFEFDB
:1030A000CF1ADF0ADACF80E0DF91CF911F910F9125
:1030B000FF90EF90DF90CF9008952091890230919A
:1030C0008A022617370748F06115710539F42091F7
:1030D000E8002E772093E80001C0B901FC0120E050
:1030E0006115710579F1809182028823F1F18530B3
:1030F000F1F18091E80083FD3CC08091E80082FD01
:103100002EC08091E80080FFEBCF2091F3008091EA
:10311000F20090E0922B6115710551F08830910515
:1031200038F421912093F100615071090196F3CF99
:1031300021E0089709F020E08091E8008E778093E5
:10314000E800CECF2111CFCF0AC080918202882320
:1031500061F0853061F08091E80083FD0AC08091C4
:10316000E80082FFF2CF80E0089582E0089583E0D6
:10317000089581E008952091890230918A022617EE
:10318000370748F06115710539F42091E8002E7772
:103190002093E80001C0B901FC0120E06115710530
:1031A00091F180918202882309F440C0853009F4AE
:1031B0003FC08091E80083FD3DC08091E80082FD22
:1031C0002FC08091E80080FFE9CF2091F30080912B
:1031D000F20090E0922B6115710559F0883091054D
:1031E00040F424912093F1003196615071090196C9
:1031F000F2CF21E0089709F020E08091E8008E7777
:103200008093E800CBCF2111CCCF0AC080918202FD
:10321000882361F0853061F08091E80083FD0AC069
:103220008091E80082FFF2CF80E0089582E0089567
:1032300083E0089581E00895982F973068F5909382
:10324000E900981739F07091EC002091ED00509151
:10325000F00003C0242F762F50E021FD02C09F5FB5
:10326000ECCF3091EB003E7F3093EB003091ED00DE
:103270003D7F3093ED003091EB0031603093EB00F7
:103280007093EC002093ED005093F0002091EE003D
:1032900027FDE5CF80E008958F708093E90081E0FD
:1032A00008958091830287FF11C08091E80082FD1C
:1032B00005C0809182028111F8CF11C08091E80091
:1032C0008B770BC080918202882349F08091E800BF
:1032D00080FFF8CF8091E8008E778093E800089512
:1032E0002091E4003091E50095E64091EC00842FB8
:1032F000817040FF23C08091E80080FD1DC0809157
:103300008202882399F0853099F08091EB0085FD49
:1033100011C04091E4005091E5002417350729F3CE
:10332000915011F09A01E1CF84E0089582E0089570
:1033300083E0089581E0089580E008954091E800D9
:1033400042FFDDCF08950E94111A0E94191AE0EE83
:10335000F0E0808181608083E8EDF0E080818F770C
:10336000808319BCA7EDB0E08C918E7F8C93808117
:103370008F7E80831092810208950F931F93CF93C5
:10338000DF930E94111A0E94191AC8EDD0E08881BB
:103390008F77888388818068888388818F7D888300
:1033A00019BC1092820210927E021092800210923A
:1033B0007F0200EE10E0F80180818B7F808388819E
:1033C0008160888342E060E080E00E941C19E1EEA9
:1033D000F0E080818E7F8083E2EEF0E0808181608A
:1033E0008083808188608083F80180818E7F8083E4
:1033F000888180618883DF91CF911F910F9108951B
:10340000E8EDF0E080818F7E8083E7EDF0E0808161
:103410008160808384E082BF81E0809381020C948C
:10342000BD19E8EDF0E080818E7F80831092E2008C
:1034300008951092DA001092E10008951F920F9201
:103440000FB60F9211242F933F934F935F936F9377
:103450007F938F939F93AF93BF93EF93FF9380914D
:10346000E10082FF0BC08091E20082FF07C08091E3
:10347000E1008B7F8093E1000E94941C8091DA0030
:1034800080FF1FC08091D80080FF1BC08091DA00B0
:103490008E7F8093DA008091D90080FF0DC080E19B
:1034A00089BD82E189BD09B400FEFDCF81E0809332
:1034B00082020E94711605C019BC109282020E94FD
:1034C0007F168091E10080FF19C08091E20080FFAB
:1034D00015C08091E2008E7F8093E2008091E2002F
:1034E00080618093E2008091D80080628093D80050
:1034F00019BC85E0809382020E9483168091E100CE
:1035000084FF30C08091E20084FF2CC080E189BD3F
:1035100082E189BD09B400FEFDCF8091D8008F7D86
:103520008093D8008091E1008F7E8093E1008091AC
:10353000E2008F7E8093E2008091E20081608093C0
:10354000E20080917E02882311F084E007C0809120
:10355000E30087FD02C081E001C083E08093820226
:103560000E9484168091E10083FF29C08091E200CF
:1035700083FF25C08091E100877F8093E10082E096
:103580008093820210927E028091E1008E7F809370
:10359000E1008091E2008E7F8093E2008091E20062
:1035A00080618093E20042E060E080E00E941C19AC
:1035B0008091F00088608093F0000E948216FF9155
:1035C000EF91BF91AF919F918F917F916F915F919B
:1035D0004F913F912F910F900FBE0F901F90189514
:1035E0001F920F920FB60F9211242F933F934F9378
:1035F0005F936F937F938F939F93AF93BF93CF937B
:10360000DF93EF93FF93C091E900CF708091EC00BE
:10361000D82FD17080FDD0E81092E9008091F000A1
:10362000877F8093F00078940E94341B1092E90009
:103630008091F00088608093F000CD2BCF70C09314
:10364000E900FF91EF91DF91CF91BF91AF919F91F1
:103650008F917F916F915F914F913F912F910F903B
:103660000FBE0F901F9018951F93CF93DF93CDB788
:10367000DEB7AA970FB6F894DEBF0FBECDBFE3E862
:10368000F2E08091F100819322E0EB38F207C9F774
:103690000E9490168091E80083FF2EC180918302E2
:1036A00090918402492F50E04A30510508F024C11E
:1036B000FA01EC58FF4F0C94B01C803821F082388E
:1036C00009F01AC108C080917F029091800299236D
:1036D00089F082600FC0809187028F70873008F078
:1036E0000BC18093E9008091EB0085FB882780F96E
:1036F0001092E9009091E800977F9093E800809302
:10370000F1001092F100D1C0282F2D7F09F0F4C0F4
:10371000882319F0823061F0EFC0809185028130FA
:1037200009F0EAC0933009F080E0809380022EC057
:103730008091850281112AC0809187028F702FEFBE
:10374000280F263008F0D8C08093E9002091EB00C4
:1037500020FF1CC0933021F48091EB00806214C0E4
:103760009091EB0090619093EB0021E030E0A90193
:1037700002C0440F551F8A95E2F74093EA00109269
:10378000EA008091EB0088608093EB001092E900E2
:103790008091E800877F8093E8000E945119ACC0B7
:1037A0008111AAC0109185021F778091E300807873
:1037B000812B8093E3008091E800877F8093E8006D
:1037C0000E9451198091E80080FFFCCF8091E300B6
:1037D00080688093E300111102C082E001C083E0A1
:1037E0008093820289C08058823008F085C0809121
:1037F0008502909186028C3D53E0950779F583E030
:103800008A838AE289834FB7F894DE01139620E019
:103810003EE051E2E32FF0E050935700E49120FFA7
:1038200003C0E295EF703F5FEF708E2F90E0EA30BB
:1038300010F0C79601C0C0968D939D932F5F2431E1
:1038400049F74FBF8091E800877F8093E8006AE2E4
:1038500070E0CE0101960E945D1816C0609187024B
:1038600070918802AE014F5F5F4F0E948C17BC01C0
:10387000892B09F441C09091E800977F9093E8006C
:1038800089819A810E94BB188091E8008B77809390
:10389000E80032C0803881F58091E800877F80930E
:1038A000E80080917E028093F1008091E8008E779D
:1038B00072CF811121C08091850290918602992753
:1038C0000297D4F48091E800877F8093E80080918C
:1038D000850280937E020E94511980917E0281119F
:1038E00006C08091E30087FD02C081E001C084E052
:1038F000809382020E9486168091E80083FF0AC0AE
:103900008091E800877F8093E8008091EB008062DF
:103910008093EB00AA960FB6F894DEBF0FBECDBF22
:10392000DF91CF911F9108950895CF9380918202E6
:103930008823A1F0C091E900CF709091EC00892F0D
:10394000817090FD80E8C82B1092E9008091E8001A
:1039500083FD0E94341BCF70C093E900CF9108957E
:10396000EE0FFF1F0590F491E02D0994F999FECF19
:1039700092BD81BDF89A992780B50895A8E1B0E07D
:1039800042E050E00C94EA1C262FF999FECF92BD3C
:1039900081BDF89A019700B4021639F01FBA20BD14
:1039A0000FB6F894FA9AF99A0FBE08950396272F46
:1039B0000E94C51C0E94C41C252F0E94C51C242FD8
:1039C0000C94C51C0196272F0E94C51C0C94C41C86
:1039D000DC01CB01FC01F999FECF06C0F2BDE1BDCF
:1039E000F89A319600B40D9241505040B8F70895BE
:0439F000F894FFCF79
:1039F4003002F1153E16F4153A16281601E200E9D4
:103A040000EA00B500B600B700CD008301CC008AFF
:103A14000192019401210223022402250226022795
:103A2400022A02B300B4006F007000818283F6F5AD
:103A3400F4F1F067663630C6373332929395943199
:103A44003534F79796E200E900EA00B500B600B70E
:103A540000CD008301CC008A01920194012102234C
:103A64000224022502260227022A02B300B4006FB0
:063A740000700081828356
:00000001FF
